{
  "contractName": "TodoList",
  "abi": [
    {
      "constant": true,
      "inputs": [],
      "name": "listLength",
      "outputs": [
        {
          "internalType": "uint256",
          "name": "",
          "type": "uint256"
        }
      ],
      "payable": false,
      "stateMutability": "view",
      "type": "function"
    },
    {
      "constant": true,
      "inputs": [
        {
          "internalType": "uint256",
          "name": "",
          "type": "uint256"
        }
      ],
      "name": "todoList",
      "outputs": [
        {
          "internalType": "string",
          "name": "name",
          "type": "string"
        },
        {
          "internalType": "bool",
          "name": "finished",
          "type": "bool"
        },
        {
          "internalType": "uint256",
          "name": "number",
          "type": "uint256"
        },
        {
          "internalType": "bool",
          "name": "deprecation",
          "type": "bool"
        }
      ],
      "payable": false,
      "stateMutability": "view",
      "type": "function"
    },
    {
      "constant": false,
      "inputs": [
        {
          "internalType": "string",
          "name": "_name",
          "type": "string"
        }
      ],
      "name": "addTodo",
      "outputs": [],
      "payable": false,
      "stateMutability": "nonpayable",
      "type": "function"
    },
    {
      "constant": false,
      "inputs": [
        {
          "internalType": "uint256",
          "name": "_number",
          "type": "uint256"
        }
      ],
      "name": "toggle",
      "outputs": [],
      "payable": false,
      "stateMutability": "nonpayable",
      "type": "function"
    },
    {
      "constant": false,
      "inputs": [
        {
          "internalType": "uint256",
          "name": "_number",
          "type": "uint256"
        }
      ],
      "name": "deleteTodo",
      "outputs": [],
      "payable": false,
      "stateMutability": "nonpayable",
      "type": "function"
    }
  ],
  "bytecode": "0x60806040526000805534801561001457600080fd5b50610673806100246000396000f3fe608060405234801561001057600080fd5b50600436106100575760003560e01c806358c2d4691461005c5780636e3c673814610120578063751ef7531461014e57806395ffebf51461017c578063fb6f049f14610237575b600080fd5b6100886004803603602081101561007257600080fd5b8101908080359060200190929190505050610255565b60405180806020018515151515815260200184815260200183151515158152602001828103825286818151815260200191508051906020019080838360005b838110156100e25780820151818401526020810190506100c7565b50505050905090810190601f16801561010f5780820380516001836020036101000a031916815260200191505b509550505050505060405180910390f35b61014c6004803603602081101561013657600080fd5b8101908080359060200190929190505050610344565b005b61017a6004803603602081101561016457600080fd5b810190808035906020019092919050505061037d565b005b6102356004803603602081101561019257600080fd5b81019080803590602001906401000000008111156101af57600080fd5b8201836020820111156101c157600080fd5b803590602001918460018302840111640100000000831117156101e357600080fd5b91908080601f016020809104026020016040519081016040528093929190818152602001838380828437600081840152601f19601f820116905080830192505050505050509192919290505050610488565b005b61023f610567565b6040518082815260200191505060405180910390f35b6001818154811061026257fe5b9060005260206000209060040201600091509050806000018054600181600116156101000203166002900480601f01602080910402602001604051908101604052809291908181526020018280546001816001161561010002031660029004801561030e5780601f106102e35761010080835404028352916020019161030e565b820191906000526020600020905b8154815290600101906020018083116102f157829003601f168201915b5050505050908060010160009054906101000a900460ff16908060020154908060030160009054906101000a900460ff16905084565b600180828154811061035257fe5b906000526020600020906004020160030160006101000a81548160ff02191690831515021790555050565b600115156001828154811061038e57fe5b906000526020600020906004020160030160009054906101000a900460ff1615151415610423576040517f08c379a000000000000000000000000000000000000000000000000000000000815260040180806020018281038252600f8152602001807f686176652064657072656361746564000000000000000000000000000000000081525060200191505060405180910390fd5b6001818154811061043057fe5b906000526020600020906004020160010160009054906101000a900460ff16156001828154811061045d57fe5b906000526020600020906004020160010160006101000a81548160ff02191690831515021790555050565b61049061056d565b60405180608001604052808381526020016000151581526020016000548152602001600015158152509050600181908060018154018082558091505090600182039060005260206000209060040201600090919290919091506000820151816000019080519060200190610505929190610599565b5060208201518160010160006101000a81548160ff0219169083151502179055506040820151816002015560608201518160030160006101000a81548160ff021916908315150217905550505050600160008082825401925050819055505050565b60005481565b604051806080016040528060608152602001600015158152602001600081526020016000151581525090565b828054600181600116156101000203166002900490600052602060002090601f016020900481019282601f106105da57805160ff1916838001178555610608565b82800160010185558215610608579182015b828111156106075782518255916020019190600101906105ec565b5b5090506106159190610619565b5090565b61063b91905b8082111561063757600081600090555060010161061f565b5090565b9056fea265627a7a723158202fe2a34f6f4a21f398e1f5df70e02f1ec517d032b8f3e30336c0e6bf24ce51b264736f6c63430005100032",
  "source": "pragma solidity ^0.5.0;\r\n\r\ncontract TodoList {\r\n    uint256 public listLength = 0;\r\n    \r\n    struct Todo{\r\n        string name;\r\n        bool finished;\r\n        uint256 number;\r\n        bool deprecation;\r\n    }\r\n    Todo[] public todoList;\r\n    \r\n    function addTodo(string memory _name)public{\r\n        Todo memory _todo; \r\n        _todo = Todo(_name,false,listLength,false);  // Todo memory _todo = Todo(_name,false,listLength,false);\r\n        todoList.push(_todo);\r\n        listLength+=1;\r\n    }\r\n    function toggle(uint256 _number)public{\r\n        require(todoList[_number].deprecation!=true,'have deprecated');\r\n        todoList[_number].finished = !todoList[_number].finished;\r\n    }\r\n    function deleteTodo(uint256 _number)public{\r\n        todoList[_number].deprecation = true;\r\n    }\r\n    \r\n}",
  "sourcePath": "C:\\Users\\CHEN FAMILY\\Desktop\\solidity todolist\\contracts\\TodoList.sol",
  "compiler": {
    "name": "solc",
    "version": "0.5.16+commit.9c3226ce.Emscripten.clang"
  },
  "schemaVersion": "3.0.23",
  "updatedAt": "2020-08-23T11:00:23.202Z",
  "networkType": "ethereum",
  "devdoc": {
    "methods": {}
  },
  "userdoc": {
    "methods": {}
  }
}