{
  "contractName": "TodoList",
  "abi": [
    {
      "anonymous": false,
      "inputs": [
        {
          "indexed": false,
          "internalType": "uint256",
          "name": "listLength",
          "type": "uint256"
        },
        {
          "indexed": false,
          "internalType": "string",
          "name": "status",
          "type": "string"
        }
      ],
      "name": "EventOfCreate",
      "type": "event"
    },
    {
      "constant": true,
      "inputs": [],
      "name": "listLength",
      "outputs": [
        {
          "internalType": "uint256",
          "name": "",
          "type": "uint256"
        }
      ],
      "payable": false,
      "stateMutability": "view",
      "type": "function"
    },
    {
      "constant": true,
      "inputs": [
        {
          "internalType": "uint256",
          "name": "",
          "type": "uint256"
        }
      ],
      "name": "todoList",
      "outputs": [
        {
          "internalType": "string",
          "name": "name",
          "type": "string"
        },
        {
          "internalType": "bool",
          "name": "finished",
          "type": "bool"
        },
        {
          "internalType": "uint256",
          "name": "number",
          "type": "uint256"
        },
        {
          "internalType": "bool",
          "name": "deprecation",
          "type": "bool"
        }
      ],
      "payable": false,
      "stateMutability": "view",
      "type": "function"
    },
    {
      "constant": false,
      "inputs": [
        {
          "internalType": "string",
          "name": "_name",
          "type": "string"
        }
      ],
      "name": "addTodo",
      "outputs": [],
      "payable": false,
      "stateMutability": "nonpayable",
      "type": "function"
    },
    {
      "constant": false,
      "inputs": [
        {
          "internalType": "uint256",
          "name": "_number",
          "type": "uint256"
        }
      ],
      "name": "toggle",
      "outputs": [],
      "payable": false,
      "stateMutability": "nonpayable",
      "type": "function"
    },
    {
      "constant": false,
      "inputs": [
        {
          "internalType": "uint256",
          "name": "_number",
          "type": "uint256"
        }
      ],
      "name": "deleteTodo",
      "outputs": [],
      "payable": false,
      "stateMutability": "nonpayable",
      "type": "function"
    }
  ],
  "bytecode": "0x60806040526000805534801561001457600080fd5b506106e5806100246000396000f3fe608060405234801561001057600080fd5b50600436106100575760003560e01c806358c2d4691461005c5780636e3c673814610120578063751ef7531461014e57806395ffebf51461017c578063fb6f049f14610237575b600080fd5b6100886004803603602081101561007257600080fd5b8101908080359060200190929190505050610255565b60405180806020018515151515815260200184815260200183151515158152602001828103825286818151815260200191508051906020019080838360005b838110156100e25780820151818401526020810190506100c7565b50505050905090810190601f16801561010f5780820380516001836020036101000a031916815260200191505b509550505050505060405180910390f35b61014c6004803603602081101561013657600080fd5b8101908080359060200190929190505050610344565b005b61017a6004803603602081101561016457600080fd5b810190808035906020019092919050505061037d565b005b6102356004803603602081101561019257600080fd5b81019080803590602001906401000000008111156101af57600080fd5b8201836020820111156101c157600080fd5b803590602001918460018302840111640100000000831117156101e357600080fd5b91908080601f016020809104026020016040519081016040528093929190818152602001838380828437600081840152601f19601f820116905080830192505050505050509192919290505050610488565b005b61023f6105d9565b6040518082815260200191505060405180910390f35b6001818154811061026257fe5b9060005260206000209060040201600091509050806000018054600181600116156101000203166002900480601f01602080910402602001604051908101604052809291908181526020018280546001816001161561010002031660029004801561030e5780601f106102e35761010080835404028352916020019161030e565b820191906000526020600020905b8154815290600101906020018083116102f157829003601f168201915b5050505050908060010160009054906101000a900460ff16908060020154908060030160009054906101000a900460ff16905084565b600180828154811061035257fe5b906000526020600020906004020160030160006101000a81548160ff02191690831515021790555050565b600115156001828154811061038e57fe5b906000526020600020906004020160030160009054906101000a900460ff1615151415610423576040517f08c379a000000000000000000000000000000000000000000000000000000000815260040180806020018281038252600f8152602001807f686176652064657072656361746564000000000000000000000000000000000081525060200191505060405180910390fd5b6001818154811061043057fe5b906000526020600020906004020160010160009054906101000a900460ff16156001828154811061045d57fe5b906000526020600020906004020160010160006101000a81548160ff02191690831515021790555050565b6104906105df565b6040518060800160405280838152602001600015158152602001600054815260200160001515815250905060018190806001815401808255809150509060018203906000526020600020906004020160009091929091909150600082015181600001908051906020019061050592919061060b565b5060208201518160010160006101000a81548160ff0219169083151502179055506040820151816002015560608201518160030160006101000a81548160ff0219169083151502179055505050507f71175a5d364338db83ee5ef62deaed90a1b4e8906a46e99bc034738fe06533ee6000546040518082815260200180602001828103825260078152602001807f66696e69736564000000000000000000000000000000000000000000000000008152506020019250505060405180910390a1600160008082825401925050819055505050565b60005481565b604051806080016040528060608152602001600015158152602001600081526020016000151581525090565b828054600181600116156101000203166002900490600052602060002090601f016020900481019282601f1061064c57805160ff191683800117855561067a565b8280016001018555821561067a579182015b8281111561067957825182559160200191906001019061065e565b5b509050610687919061068b565b5090565b6106ad91905b808211156106a9576000816000905550600101610691565b5090565b9056fea265627a7a7231582021d88f58be2101afe0597d8958283e3a11ce984972c88cc937844e22abe4959e64736f6c63430005100032",
  "source": "pragma solidity ^0.5.0;\r\n\r\ncontract TodoList {\r\n    uint256 public listLength = 0;\r\n    event EventOfCreate(\r\n       uint256  listLength,\r\n       string status\r\n    );\r\n    \r\n    struct Todo{\r\n        string name;\r\n        bool finished;\r\n        uint256 number;\r\n        bool deprecation;\r\n    }\r\n    Todo[] public todoList;\r\n    \r\n    function addTodo(string memory _name)public{\r\n        Todo memory _todo; \r\n        _todo = Todo(_name,false,listLength,false);  // Todo memory _todo = Todo(_name,false,listLength,false);\r\n        todoList.push(_todo);\r\n        emit EventOfCreate(listLength,\"finised\");\r\n        listLength+=1;\r\n    }\r\n    function toggle(uint256 _number)public{\r\n        require(todoList[_number].deprecation!=true,'have deprecated');\r\n        todoList[_number].finished = !todoList[_number].finished;\r\n    }\r\n    function deleteTodo(uint256 _number)public{\r\n        todoList[_number].deprecation = true;\r\n    }\r\n    \r\n}",
  "sourcePath": "C:\\Users\\CHEN FAMILY\\Desktop\\solidity todolist\\contracts\\TodoList.sol",
  "compiler": {
    "name": "solc",
    "version": "0.5.16+commit.9c3226ce.Emscripten.clang"
  },
  "schemaVersion": "3.0.23",
  "updatedAt": "2020-08-24T15:15:35.250Z",
  "devdoc": {
    "methods": {}
  },
  "userdoc": {
    "methods": {}
  }
}